:100000000C9440000C9400000C9400000C94000030
:100010000C9400000C9400000C9400000C94000060
:100020000C9400000C9400000C9400000C94000050
:100030000C9400000C9400000C9400000C94000040
:100040000C9400000C9400000C9400000C94000030
:100050000C9400001027E80364000A00010000105F
:100060000001100001004D6174726978204B6579C0
:100070003A202575000080C0020060027600000072
:10008000F894EE27ECBBF1E0FBBFEBBFE5BFF8E176
:10009000F1BDE1BD8DE0A2E0BB27ED938A95E9F7C4
:1000A00080E098E0A0E6ED930197E9F7E8E7F0E05B
:1000B00085919591009761F0A591B5910590159066
:1000C000BF01F00105900D920197E1F7FB01F0CF20
:1000D000EFE5EDBFE8E0EEBFC0E6D2E00C947000C3
:1000E000609710E0E0E0EBBBE7EFEABBE0E0E8BBE5
:1000F000E7BBE5BBEFEFE4BBECE1E2BBE1BBE5E076
:10010000E3BFE0E0E2BFECBFEFBDEEBDEDBDECBD97
:10011000E7BDE6BDEBBDEABDE9BDE8BDE2BDE5BDBD
:10012000E4BDE3E0E3BDE0E0E5BFE4BFE9BFEBB978
:10013000E8E1EAB9E6E8E0BDE0E0E0BDE7E6E9B91C
:10014000E0E8E8B9E0E0E0BFE7B9E4E8E6B90E943A
:100150005F04E0E0EA93EA93EA9346D0E0E1EA93B1
:100160000E9403020E9408010E9415011E2F0E9496
:10017000B501E0E0EA93EA930E94A501FE01FA933B
:10018000EA93E6E6F0E0FA93EA93E12FFF27662789
:1001900077270E94CD0484E00E94AA032896FE01DE
:1001A000FA93EA930E94E401E4E6F0E0FA93EA931A
:1001B0000E94B104D9CFFFCF0E946404E0EDEA931E
:1001C0000E949804E981EA930E949804E881EA93E6
:1001D0000E9498040E947304EAE0F0E0FA93EA9324
:1001E0000E94B1040C94B3011A93E981E795E0E011
:1001F000E795AE2FEA81E295E07FEA2BAB81EA2B0F
:100200001E2FE7E0EA931A93D7DF1881249608950A
:10021000E2B3E06EE2BBE2B3E37EE2BBE1B3EC61EA
:10022000E1BBE1B3EF71E1BB08951A939298939803
:100230000E94F5030E940A04E73009F444C0929832
:10024000939A949A0E940A040E941D0411F4E7E014
:100250003BC0E530A0E0FA0711F4E4E035C0E3303C
:10026000A0E0FA0711F4E1E02FC0929A9398949AD3
:100270000E940A040E941D0411F4E8E025C0E53044
:10028000A0E0FA0711F4E5E01FC0E330A0E0FA07B0
:1002900011F4E2E019C0929A939A0E94F503E12FBB
:1002A000F0E0E630A0E0FA0711F4E9E00DC0E53037
:1002B000A0E0FA0711F4E6E007C0E330A0E0FA0797
:1002C00011F4E3E001C0E0E019910895FFE0FA9530
:1002D000F1F70895AAB3AF70AABBD99AD898F6DF00
:1002E000DA9AF4DFA9B3DA98F1DFDA9AEFDFDA9875
:1002F000A7FDF5CF0895A07FAB2BABBBDA9A0E9488
:100300006601DA980E9466010895D998AAB3A76F8A
:10031000AABBBBB3BF70A881EEDFA881A295EBDFBB
:10032000D99A0C943502DA9A0E946601E9B3DA98F8
:100330000E946601E07F08950E946601F4DFAE2FFF
:10034000F2DFD998E295EA2B08950E946A01E881CC
:10035000F0E0E05AFD4FE081A981EA0FEA930E94A4
:10036000850159804880229608950E946A01E2E042
:10037000EA930E9485010E946A01ECE0EA930E94E0
:1003800085010E946A01E1E0EA930E948501E0E0B4
:100390004E2E5E2E0895EF93FF93A8816894AA30A5
:1003A00019F0E894571430F04394E0E0EA934A924D
:1003B000CCDF36F053948EDFD89AA881AA93A5DFBC
:1003C000FF91EF910C9435021A93A981BA81ED91B6
:1003D000A983BA831E2FE03019F01A93DCDFF5CF22
:1003E000188123960895AA27BB271197F1F708953E
:1003F000D998AAB3A76FAABBBBB3BF70A8810E944C
:100400007B01D99A32C0DA98D8987880E881E05890
:10041000E0936202E881E054E09363020E942404C6
:100420000E9424040E942404DEDFE0E2EA93E0DF7D
:10043000DADFE8E20E942A04E4E00E942A04E5E808
:100440000E942A04AAB3AF70AABBD99A0E949C0149
:10045000E53011F0E0E009C00E946A01E6E0EA93AD
:100460000E9485010E94B501E1E0219608951A934A
:100470000A93AA81BB8112960E94C504309759F154
:10048000AA81BB8114960E94C5048F01309761F048
:100490000230E0E01E07F0F0F80131978F01AA81E9
:1004A000BB811496ED93FC93AA81BB811296ED91CA
:1004B000FD913196FE93EE933197AC81A083AA8192
:1004C000BB810E94C504FF232AF0ED91FD91319676
:1004D000FE93EE9306C0AA81BB81EFEFFFEFED9391
:1004E000FC93198108812596089526970E94D204CD
:1004F00010E0AC85BD85E0E0F0E0ED93FC93EA8987
:10050000FB893196EA8BFB8B3197E4912E2FE030FB
:1005100011F40C94A203E12FE03039F4253211F4E8
:1005200011E002C00E942F040CC1E130A9F4253271
:1005300019F40E942F0404C112E040E000E02D32C3
:1005400011F401E0FEC02B3211F44BE2FAC020326C
:1005500011F440E2F6C002C0E23039F450E013E09A
:10056000203311F40068EDC004C0E33011F00C94A6
:10057000A103203310F02A3308F007C0AAE05A9FE5
:10058000502DE22FE0535E0FDCC0E22FE33649F43A
:100590000E943804E889F989A481AA930E943E0444
:1005A000CFC0E33741F40E9438040E9446040E9401
:1005B000E0031E2F0AC0E03761F40E9438040E9455
:1005C00046040E94EA031E2F086002600F7730E0A5
:1005D00035C0E43611F0E93611F4046002C0E537A5
:1005E00031F4E4E5F0E0EE83FF8315E00DC0E8357B
:1005F00011F4086004C0E83711F00C94A003EEE594
:10060000F0E0EE83FF8314E002FF14C00E94380480
:100610000E945004AB85AA233AF4EA85FB850E9428
:10062000C104EA87FB874DE2403011F01F5F01C033
:100630000B7F04C00E9438040E94500400FD11C0CA
:10064000151778F407FF08C002FF04C00B7F242FA2
:10065000115001C020E301C020E20E942F0451503C
:10066000EFCF312F01FF17C03030A1F003FF06C0DC
:10067000EE81FF812591EE83FF8305C0AE81BF81AE
:100680002D91AE83BF830E942F04503009F051504A
:100690003150EACF4BC020E3EE81FF810E94C904B4
:1006A000E887F987EE81FF813296EE83FF83E88544
:1006B000F985AA85BB85AE17BF0750F02F5FA885C7
:1006C000B985EA85FB85EA1BFB0BEA87FB87EFCF41
:1006D0002A3328F003FF02C0295F01C0295D04FD11
:1006E0001AC0213320F4A885B985119709F409C0EF
:1006F000531710F000FF01C013C020E207FF0BC02A
:1007000020E3006102FF07C00B7F4A930E943E0472
:10071000503009F051500E942F04503009F05150D0
:100720003150A885B985129708F0B5CF00FF08C0F1
:10073000503031F05150E0E2EA930E943E04F8CF8D
:1007400010E0DDCEAC85BD850E94C5040E94D904B1
:1007500064960895FF92F82E26970E94D4040E9472
:100760005804309719F4EFEFFFEF25C0DE0116961D
:100770000E94BD048D010E945804EE83FF83E0E0D7
:10078000E887E987DE011A960E94BD040E94C5042D
:10079000FA93EA931A930A93E7E3F2E0FA93EA935F
:1007A000FE013A96FA93EA93A0DE9F01AE81BF81E3
:1007B000E0E0EC93F9010E94DB042A96FF90089593
:1007C000A991B991EE27FF276D91662311F031961B
:1007D000FBCF0895AA27BB27E991F9910590002046
:1007E00011F01196FBCFFD0108959498A0E0859932
:1007F000A1E0EA2FEE0FEE0F0E2EA0E08699A1E009
:10080000EA2FEE0FE029AE2FE0E08799E1E0EA2B36
:100810001E2F0895A0E08599A1E0EA2FEE0FEE0FBC
:100820000E2EA0E08699A1E0EA2FEE0FE029AE2F70
:10083000E0E08799E1E0EA2B08951E2FE12FF0E038
:10084000E630A0E0FA0708950E94F301E0E3EA939E
:100850000C94F801EA930E9485010C94F3012A9309
:10086000ED85FE85FA93EA93E989FA890995089559
:10087000E889F9893497E88BF98B0895ED85FE8531
:10088000FA93EA93E989FA8909950895A889B989BB
:1008900014960E94C504EE83FF83FA93EA930895A9
:1008A000A889B98914960E94C504EA87FB87089530
:1008B000DE011C960E94BD040E94C5040895A898FC
:1008C000A998A09AA19815C0A198A098EE27000019
:1008D000999B0895989B089504D0A19A02D0A09A5C
:1008E000E1E06BE107C0A19AA09A03D0A098F9DFDC
:1008F000A19865E36A95F1F7089578E0A098F1DF93
:10090000989BFECFEEDF889499990894A09AF1DF26
:10091000EE1F7A9599F77991772311F4A19801C088
:10092000A19ADFDFA098E5DFA09ADBDFA198D9CFFD
:10093000E99178E0EE0F10F4A19801C0A19AD9DFF7
:10094000A098CFDF989BFECFCCDFA09A7A9591F745
:10095000A198C7DFA098CDDFE1E09999EE27A09A92
:100960000895E991F991309639F080EA9FE0019776
:10097000F1F7A8953197C9F708950024AF0DB01D80
:100980000895F195E195F0400895ED91FC9111974E
:1009900008950590F491E02D08957A936A93FA935F
:1009A000EA9308955A934A933A932A931A930A938F
:1009B00008955D814C813B812A81198108810895C8
:00000001FF
