:060000000C9438000C9482
:1000060000000C9400000C9400000C9400000C946A
:1000160000000C9400000C9400000C9400000C945A
:1000260000000C9400000C9400000C9400000C944A
:1000360000000C9400000C9400000C9400000C943A
:1000460000000C9400000C9400000C940000102793
:10005600E80364000A00010000100001100001001E
:1000660080C00200600266000000F894EE27ECBB38
:10007600F1E0FBBFEBBFE5BFF8E1F1BDE1BD8DE00F
:10008600A2E0BB27ED938A95E9F780E098E0A0E629
:10009600ED930197E9F7E8E6F0E0859195910097F1
:1000A60061F0A591B59105901590BF01F0010590FD
:1000B6000D920197E1F7FB01F0CFEFE5EDBFE8E028
:1000C600EEBFC0E6D2E00C946800E0E0EBBBE7EFE1
:1000D600EABBE0E0E8BBE7BBE5BBEFEFE4BBECE186
:1000E600E2BBE1BBE5E0E3BFE0E0E2BFECBFEFBDB2
:1000F600EEBDEDBDECBDE7BDE6BDEBBDEABDE9BDC0
:10010600E8BDE2BDE0E1E5BDE0E0E4BDE3E0E3BD7E
:10011600E0E0E5BFE4BFE9BFEBB9E8E1EAB9E6E84C
:10012600E0BDE0E0E0BDE7E6E9B9E0E8E8B9E0E037
:10013600E0BFE7B9E4E8E6B90E947D01E0E0EA93B2
:10014600EA93EA930E94C500E0E1EA930E943E0129
:10015600FFCFFFCF0E948201E0EDEA930E94B60135
:10016600E981EA930E94B601E881EA930E94B6010A
:100176000E949101EAE0F0E0FA93EA930E94CF012F
:10018600229608951A93E981E795E0E0E795AE2F68
:10019600EA81E295E07FEA2BAB81EA2B1E2FE7E0AE
:1001A600EA931A93D7DF188124960895FFE0FA950B
:1001B600F1F70895AAB3AF70AABBD99AD898F6DF1B
:1001C600DA9AF4DFA9B3DA98F1DFDA9AEFDFDA9890
:1001D600A7FDF5CF0895A07FAB2BABBBDA9A0E94A3
:1001E600D900DA980E94D9000895D998AAB3A76FC2
:1001F600AABBBBB3BF70A881EEDFA881A295EBDFD7
:10020600D99A0C947001DA9A0E94D900E9B3DA9867
:100216000E94D900E07F08950E94D900F4DFAE2F36
:10022600F2DFD998E295EA2B08950E94DD00E2E01C
:10023600EA930E94F8000E94DD00ECE0EA930E9437
:10024600F8000E94DD00E1E0EA930E94F800E0E099
:100256004E2E5E2E0895AA27BB271197F1F7089513
:10026600D998AAB3A76FAABBBBB3BF70A8810E94D7
:10027600EE00D99A32C0DA98D8987880E881E058AA
:10028600E0936202E881E054E09363020E94720107
:100296000E9472010E947201DEDFE0E2EA93E0DF73
:1002A600DADFE8E20E947801E4E00E947801E5E8FE
:1002B6000E947801AAB3AF70AABBD99A0E940F0117
:1002C600E53011F0E0E009C00E94DD00E6E0EA93C7
:1002D6000E94F8000E941801E1E0219608950E940C
:1002E6002E01E0E3EA930C943301EA930E94F800AE
:1002F6000C942E01A898A998A09AA19815C0A19827
:10030600A098EE270000999B0895989B089504D025
:10031600A19A02D0A09AE1E06BE107C0A19AA09A47
:1003260003D0A098F9DFA19865E36A95F1F70895DF
:1003360078E0A098F1DF989BFECFEEDF889499993C
:100346000894A09AF1DFEE1F7A9599F779917723B1
:1003560011F4A19801C0A19ADFDFA098E5DFA09A69
:10036600DBDFA198D9CFE99178E0EE0F10F4A198E0
:1003760001C0A19AD9DFA098CFDF989BFECFCCDF32
:10038600A09A7A9591F7A198C7DFA098CDDFE1E012
:100396009999EE27A09A0895E991F991309639F046
:1003A60080EA9FE00197F1F7A8953197C9F708957C
:00000001FF
