:080000000C9448000C94000070
:100008000C9400000C9400000C9400000C94000068
:100018000C9400000C9400000C9400000C94000058
:100028000C9400000C9400000C9400000C94000048
:100038000C9400000C9400000C9400000C94000038
:100048000C9400000C9400000C9400001027E803A6
:1000580064000A0001000010000110000100566F42
:100068006C746167653A25642E25642564256400EF
:1000780080C001002D4E414E000002006002780051
:10008800010064027A000000F894EE27ECBBF1E06E
:10009800FBBFEBBFE5BFF8E1F1BDE1BD8DE0A2E03C
:1000A800BB27ED938A95E9F780E098E0A0E6ED9309
:1000B8000197E9F7E2E8F0E085919591009761F002
:1000C800A591B59105901590BF01F00105900D928D
:1000D8000197E1F7FB01F0CFEFE5EDBFE8E0EEBFF8
:1000E800C0E6D2E00C9478006697E0E0EBBBE7EF5F
:1000F800EABBE0E0E8BBE7BBE5BBEFEFE4BBECE164
:10010800E2BBE1BBE5E0E3BFE0E0E2BFECBFEFBD8F
:10011800EEBDEDBDECBDE7BDE6BDEBBDEABDE9BD9D
:10012800E8BDE2BDE7E1E5BDE0E0E4BDE3E0E3BD55
:10013800E0E0E5BFE4BFE9BFEBB9E8E1EAB9E6E82A
:10014800E0BDE0E0E0BDE7E6E9B9E0E8E8B9E0E015
:10015800E0BFE7B9E4E8E6B9E0E1EA930E944D02BE
:10016800E3E0EA9358D08F01EDE0EA930E94800221
:100178000E946204DF01CB010E946E040E944406C3
:100188000E9433059F010E9462040E947304EC8B55
:10019800FD8B0E948704EA8BFB8B0E948704E88B07
:1001A800F98B0E949104EA8DFB8D0E949B04EC8DD3
:1001B800FD8D0E949B04EE8DFF8D0E949B0480E1C3
:1001C8000E942C046296FE01FA93EA930E9491041D
:1001D800EC8DFD8D0E949B04EE8DFF8D0E949B048B
:1001E800E8A1F9A10E949B0480E10E94FC036496A7
:1001F8000E94FE01FE01FA93EA930E942D02EDE0AF
:10020800EA930E948002E4E6F0E0FA93EA930E94FF
:10021800FA04A6CFFFCFE881E7B985E38A95F1F71D
:10022800369A349BFECF349AE4B1F5B10C9484022B
:100238007B816A81F981E88177FB770F67FD7160BF
:10024800972F9E5781F078F0983190F4AA27BB2712
:10025800882708948795B795A7959A95D1F7EA23A3
:10026800FB23682305C0E8947727EE27FF27662736
:100278006F77769508F4606877F9A991B9918991B3
:100288009991EA17FB076807790797FB08950E9479
:10029800A0040E94A30419F40E94A00413C0E6F766
:1002A8000E94AA040E949F050DC00E94A0040E94FB
:1002B800A30419F40E94A00405C0E6F30E94AA044E
:1002C8000E94A605249608952497EC81FD816E81ED
:1002D8007F810E94CC0629F4E0E0F0E060E070E065
:1002E80038C0EC81FD816E817F81A885B9858A85BA
:1002F8009B850E9444060E94B5060E94A0040E94A5
:10030800CC0629F4E0E0F0E060E070E022C00E9452
:10031800B0060E94D00634F40E94A0040E94BA06D7
:10032800B6DF05C00E94A0040E94BA06BEDF0E9484
:10033800B5060E94A004AC81BD818E819F810E9478
:10034800F605A885B9858A859B850E94BF060E9407
:100358009F052C960895FFE0FA95F1F70895AAB342
:10036800AF70AABBD99AD898F6DFDA9AF4DFA9B3A6
:10037800DA98F1DFDA9AEFDFDA98A7FDF5CF08957A
:10038800A07FAB2BABBBDA9A0E94AF01DA980E9430
:10039800AF010895D998AAB3A76FAABBBBB3BF7022
:1003A800A881EEDFA881A295EBDFD99A0C9484028C
:1003B800DA9A0E94AF01E9B3DA980E94AF01E07FB0
:1003C80008950E94AF01F4DFAE2FF2DFD998E295CD
:1003D800EA2B08950E94B301E881F0E0E05AFD4F4E
:1003E800E081A981EA0FEA930E94CE0159804880F2
:1003F800229608950E94B301E2E0EA930E94CE019A
:100408000E94B301ECE0EA930E94CE010E94B3017E
:10041800E1E0EA930E94CE01E0E04E2E5E2E0895C0
:10042800EF93FF93A8816894AA3019F0E8945714C1
:1004380030F04394E0E0EA934A92CCDF36F05394EC
:100448008EDFD89AA881AA93A5DFFF91EF910C942B
:1004580084021A93A981BA81ED91A983BA831E2FC8
:10046800E03019F01A93DCDFF5CF18810C948D0277
:10047800AA27BB271197F1F70895D998AAB3A76FB0
:10048800AABBBBB3BF70A8810E94C401D99A0C94BF
:100498008402DA98D8987880E881E058E09362027C
:1004A800E881E054E09363020E94B0040E94B00423
:1004B8000E94B004DDDFE0E2EA93DFDFD9DFE8E2A3
:1004C8000E94B604E4E00E94B604E5E80E94B6047F
:1004D800AAB3AF70AABBD99A0E94E501E53011F022
:1004E800E0E00EC00E94B301E6E0EA930E94CE016C
:1004F8000E94FE01E1E004C05D9BFECFE881ECB9FB
:1005080021960895EA81EA93F7DFA881B9810E94CC
:10051800BB04239608951A930A93AA81BB81129665
:100528000E94A306309729F1AA81BB8114960E94E4
:10053800A3068F01309761F00230E0E01E07C0F09B
:10054800F80131978F01AA81BB811496ED93FC9332
:10055800AA81BB8112960E94BB043197AC81A0830B
:10056800AA81BB810E94A306FF2312F00E94BB044C
:1005780006C0AA81BB81EFEFFFEFED93FC931981D1
:1005880008812596089526970E94D60610E0AC8526
:10059800BD85E0E0F0E0ED93FC93EA89FB893196B4
:1005A800EA8BFB8B3197E4912E2FE03011F40C94F9
:1005B800F403E12FE03039F4253211F411E002C0E0
:1005C8000E94C1040CC1E130A9F4253219F40E943B
:1005D800C10404C112E040E000E02D3211F401E052
:1005E800FEC02B3211F44BE2FAC0203211F440E283
:1005F800F6C002C0E23039F450E013E0203311F4C1
:100608000068EDC004C0E33011F00C94F30320330C
:1006180010F02A3308F007C0AAE05A9F502DE22FA5
:10062800E0535E0FDCC0E22FE33649F40E94CA04AF
:10063800E889F989A481AA930E94D004CFC0E3373E
:1006480041F40E94CA040E94D8040E944D041E2F3F
:100658000AC0E03761F40E94CA040E94D8040E94CC
:1006680057041E2F086002600F7730E035C0E4366B
:1006780011F0E93611F4046002C0E53731F4E4E51D
:10068800F0E0EE83FF8315E00DC0E83511F4086053
:1006980004C0E83711F00C94F203EEE5F0E0EE83C5
:1006A800FF8314E002FF14C00E94CA040E94E204FF
:1006B800AB85AA233AF4EA85FB850E948D06EA8772
:1006C800FB874DE2403011F01F5F01C00B7F04C073
:1006D8000E94CA040E94E20400FD11C0151778F4B4
:1006E80007FF08C002FF04C00B7F242F115001C070
:1006F80020E301C020E20E94C1045150EFCF312F06
:1007080001FF17C03030A1F003FF06C0EE81FF8162
:100718002591EE83FF8305C0AE81BF812D91AE8305
:10072800BF830E94C104503009F051503150EACFC4
:100738004BC020E3EE81FF810E94A706E887F98776
:10074800EE81FF813296EE83FF83E885F985AA85DD
:10075800BB85AE17BF0750F02F5FA885B985EA851E
:10076800FB85EA1BFB0BEA87FB87EFCF2A3328F0D0
:1007780003FF02C0295F01C0295D04FD1AC02133AF
:1007880020F4A885B985119709F409C0531710F00A
:1007980000FF01C013C020E207FF0BC020E3006187
:1007A80002FF07C00B7F4A930E94D004503009F023
:1007B80051500E94C104503009F051503150A88561
:1007C800B985129708F0B5CF00FF08C0503031F056
:1007D8005150E0E2EA930E94D004F8CF10E0DDCE59
:1007E800AC85BD850E94A3060E94DD066496089527
:1007F800FF92F82E26970E94D8060E94EA043097A6
:1008080019F4EFEFFFEF1FC0DE0116960E9489066C
:100818008D010E94EA04EE83FF83E0E0E887E98720
:10082800DE011A960E94F104EFE8F2E0FA93EA93E7
:10083800FE013A96FA93EA93A6DE9F01AE81BF8144
:10084800E0E0EC93F9010E94DF062A96FF900895F4
:10085800FF92F82E26971A930A93DE0114960E94A7
:1008680089068D01E0E0EC83ED83EE83EF83DE0102
:1008780018960E94F104E6E8F2E0FA93EA93FE0182
:100888003896FA93EA937FDE198108812896FF90BB
:100898000895A991B991EE27FF276D91662311F06C
:1008A8003196FBCF0895AA27BB27E991F9910590C6
:1008B800002011F01196FBCFFD010895F80166277D
:1008C80077270E946C05A0E0B0E080EA90E40E94DF
:1008D800F6050895E0E0F0E060E874E408950E9409
:1008E800BA06F8DF0E94BA060E9468010E94330522
:1008F800AF01AAE0A49FF001A59FF00D0E94990600
:10090800EF2FF0E00895AAE0A49FF001A59FF00D55
:10091800662777270E946C05E2CFE6E6F0E0FA93B7
:10092800EA93F901662777270E94BA060895662791
:1009380077270E94BA0608950E94AB0608950E9480
:10094800BA060E941C010E94B5060895F5DFA0E0D2
:10095800B0E080E89FE308950E943C02E0E3EA9358
:100968000C944102EA930E94CE010C943C02ED9152
:10097800FD913196FE93EE9308952A93ED85FE85B9
:10098800FA93EA93E989FA8909950895E889F98932
:100998003497E88BF98B0895ED85FE85FA93EA93F1
:1009A800E989FA8909950895A889B98914960E9450
:1009B800A306EE83FF83FA93EA930895A889B98979
:1009C80014960E94A306EA87FB870895DE011C9609
:1009D8000E9489060E94A30608950E9489060E9423
:1009E800A306FA93EA931A930A930895E991F99161
:1009F800309639F080EA9FE00197F1F7A895319792
:100A0800C9F70895552342F4503811F4E0FF04C0A3
:100A18003196691F791F6BF050E8572711F45F93DF
:100A2800CFC05F3F31F0660F000C57956795752F63
:100A380008955F9300200AF0CFC0C8C050E8192E6F
:100A48001522880F991F9527550F879550E8072E6F
:100A58000522660F771F7527550F679508956894C7
:100A680001C0E8945F93F2DF703818F07F3F08F414
:100A7800A7C056E1571BAAF4519558300EF45930C7
:100A880030F0EFEFFFEF6FEF7FE777F91AC07727C6
:100A98005523B9F0EE0FFF1F661F771F5A95D1F740
:100AA80010C07727583028F0EF2FF62F672F5850AF
:100AB800F9CF552331F076956795F795E7955A95CF
:100AC800D1F700200AF429D15F910895689401C0F4
:100AD800E894309760407040B1F0002426F0772306
:100AE80012F400941AD1172E7EE1112032F07A9573
:100AF800EE0FFF1F661F111CF9CFEF2FF62F612D88
:100B08005F938ADF5F9108954F93AF01FD01DA018A
:100B1800AB01BC01CA01402D012C142E4F91089540
:100B2800EA0FFB1F681F0895E095F0956095EF5F49
:100B3800FF4F6F4F08955F9381DF903871F150E850
:100B4800152604C05F937ADF903839F1703821F1A7
:100B5800572F591B2BF112F4D7DFFACF583118F061
:100B6800AA27BB278827583028F0AB2FB82F88270B
:100B78005850F9CF552329F08695B795A7955A95DA
:100B8800D9F7502D512572F0CBDF38F46795F795DA
:100B9800E795739513F420C0B7DF3EDF5F910895A2
:100BA800D8F7FBCFEA1BFB0B680B51F010F400944D
:100BB800BBDF662392F3EE0FFF1F661F7A95CBF714
:100BC800EE27FF27662777275F910895EFEFFFEF5E
:100BD8006FE77FEF5F910895EFEFFFEF6FE77FE734
:100BE8005F9108955F932ADF703851F3903841F38D
:100BF80001240894791F23F41CF300203AF3ECCF66
:100C08000F921F932F933F934F93112722279927D2
:100C1800689FA0018F9F302D410D591F6B9F300D8C
:100C2800411D591F8E9F27D0BF9F25D06A9F23D073
:100C3800BE9F1DD0AF9F1BD0AE9F110D291F391F1E
:100C4800491F591FE32FF42F652F522F4F913F91C2
:100C58002F911F910F9066232AF0550FEE1FFF1F4B
:100C6800661F02C073954BF2CDDE5F910895100D9B
:100C7800211D391F02C0200D311D491F591F08951C
:100C88005F93DCDE703821F411200AF49FCFA4CFE3
:100C9800903809F495CF01240894970B1BF4D4F3EA
:100CA8000020F3CF792F1F932F933F934F93112455
:100CB8001127222733274427552790E2AE17BF076D
:100CC8008607410730F0AE1BBF0B860B410B08941B
:100CD80001C08894551F221F331F111CAA1FBB1F58
:100CE800881F441F9A9551F7F901612D4F913F9143
:100CF8002F911F91662332F0550FEE1FFF1F661FBD
:100D08007A9543F27FDE5F9108950024AF0DB01D00
:100D18000895F195E195F0400895F09560957095E6
:100D2800E195FF4F6F4F7F4F0895F695E795F6953C
:100D3800E79508956F2F660F660B762F0895ED914E
:100D4800FC91119708950590F491E02D0895E8819C
:100D5800F9816A817B810895A881B9818A819B8103
:100D68000895E883F9836A837B8308957A936A9365
:100D7800FA93EA930895182E862F612D192E972F2E
:100D8800712D1B2EBF2FF12D1A2EAE2FE12D089598
:100D9800309760407040089500240A160B06080634
:100DA800090608955A934A933A932A931A930A93F1
:100DB80008955D814C813B812A81198108810895BC
:00000001FF
