:0A0000000C944D000C9400000C94C9
:10000A0000000C9400000C9400000C9400000C9466
:10001A0000000C9400000C9400000C9400000C9456
:10002A0000000C9400000C9400000C9400000C9446
:10003A0000000C9400000C9400000C9400000C9436
:10004A0000000C9400000C9400001027E8036400E0
:10005A000A0001000010000110000100524335207F
:10006A004465636F64657200533A20257520543ADB
:10007A0020257500416464723A20257520434D4459
:10008A003A202575000080C002006002900000003E
:10009A00F894EE27ECBBF1E0FBBFEBBFE5BFF8E15C
:1000AA00F1BDE1BD8DE0A2E0BB27ED938A95E9F7AA
:1000BA0080E098E0A0E6ED930197E9F7E2E9F0E045
:1000CA0085919591009761F0A591B591059015904C
:1000DA00BF01F00105900D920197E1F7FB01F0CF06
:1000EA00EFE5EDBFE8E0EEBFC0E6D2E00C947D009C
:1000FA00A097E0E0EBBBE7EFEABBE0E8E8BBE0E0B3
:10010A00E7BBE5BBEFEFE4BBECE1E2BBE1BB0E947E
:10011A006504E0E0EFBDEEBDEDBDECBDE7BDE6BDBB
:10012A00EBBDEABDE9BDE8BDE2BDE7E1E5BDE0E062
:10013A00E4BDE3E0E3BDE0E0E5BFE4BFE9BFEBB95E
:10014A00E8E1EAB9E6E8E0BDE0E0E0BDE7E6E9B902
:10015A00E0E8E8B9E0E0E0BFE7B9E4E8E6B9E0E101
:10016A00EA930E947302E6E6F0E0FA93EA930E94A9
:10017A00520253D08F01F801F695E795EF734E2F8F
:10018A00D801E7E00E94C804EF715E2FECE00E94FC
:10019A00C804E1702E2FEDE00E94C804E1703E2FE2
:1001AA00FE017096FA93EA93E2E7F0E0FA93EA9393
:1001BA00E32F0E946B04E22F0E946B0488E00E94E6
:1001CA001A042C96FE01FA93EA93EEE7F0E0FA930A
:1001DA00EA93E52F0E946B04E42F0E946B0488E0E7
:1001EA000E941A042C960E941602E0E0EA93EA930F
:1001FA000E940602FE017096FA93EA930E94450253
:10020A00E0E0EA93E1E0EA930E940602FE01FA9333
:10021A00EA930E944502ADCFFFCF2E971A930A9315
:10022A000E946504B799FECFE0E0E2BFB79BFECF1C
:10023A00E2B7E531E8F30E947104EA83E2B7EC31F0
:10024A00E8F30E947104EB83E2B7EC31E8F30E9411
:10025A007104EC83E2B7EC31E8F30E947104ED8398
:10026A00E2B7EC31E8F30E947104EE83E2B7EC31B5
:10027A00E8F30E947104EF83E2B7EC31E8F30E94DD
:10028A007104E887E2B7EC31E8F30E947104E98768
:10029A00E2B7EC31E8F30E947104EA87E2B7EC3185
:1002AA00E8F30E947104EB87E2B7EC31E8F30E94AD
:1002BA007104EC87E2B7EC31E8F30E947104ED8730
:1002CA00E2B7EC31E8F30E947104EE87E2B7EC3151
:1002DA00E8F30E947104EF87AF85BB27EE85F0E053
:1002EA00EE0FFF1FEA2BFB2BDF01ED85F0E00E94EA
:1002FA00D504EA2BFB2BDF01EC85F0E00E94D30446
:10030A00EA2BFB2BDF01EB85F0E00E94D104EA2BFC
:10031A00FB2BBF01AA85B0E0E5E00E947704A9851E
:10032A00B0E0E6E00E947704A885B0E0E7E00E942A
:10033A00BF04E62BF72BDF01E0E0FF81EA2BFB2B62
:10034A00BF01AE81B0E0E9E00E947704AD81B0E080
:10035A00EAE00E947704AC81B0E0EBE00E94770407
:10036A00AB81B0E0ECE00E947704AA81B0E0EDE056
:10037A000E94BF04E62BF72B8F01F801198108812F
:10038A0060960895FFE0FA95F1F70895AAB3AF7061
:10039A00AABBD99AD898F6DFDA9AF4DFA9B3DA9821
:1003AA00F1DFDA9AEFDFDA98A7FDF5CF0895A07F9B
:1003BA00AB2BABBBDA9A0E94C701DA980E94C7013D
:1003CA000895D998AAB3A76FAABBBBB3BF70A88177
:1003DA00EEDFA881A295EBDFD99A0C94A502DA9AEE
:1003EA000E94C701E9B3DA980E94C701E07F089525
:1003FA000E94C701F4DFAE2FF2DFD998E295EA2B0B
:10040A0008950E94CB01E881F0E0E05AFD4FE081B7
:10041A00A981EA0FEA930E94E60159804880229650
:10042A0008950E94CB01E2E0EA930E94E6010E944D
:10043A00CB01ECE0EA930E94E6010E94CB01E1E0E5
:10044A00EA930E94E601E0E04E2E5E2E0895EF93B5
:10045A00FF93A8816894AA3019F0E894571430F0F1
:10046A004394E0E0EA934A92CCDF36F053948EDF6D
:10047A00D89AA881AA93A5DFFF91EF910C94A502BF
:10048A001A93A981BA81ED91A983BA831E2FE0300C
:10049A0019F01A93DCDFF5CF0EC01A93E981FA81BD
:1004AA003196E983FA833197E4911E2FE03019F0EF
:1004BA001A93CDDFF3CF188123960895AA27BB2775
:1004CA001197F1F70895D998AAB3A76FAABBBBB33E
:1004DA00BF70A8810E94DC01D99A32C0DA98D898F4
:1004EA007880E881E058E0936202E881E054E09382
:1004FA0063020E947C040E947C040E947C04DEDF6A
:10050A00E0E2EA93E0DFDADFE8E20E948204E4E074
:10051A000E948204E5E80E948204AAB3AF70AABBD3
:10052A00D99A0E94FD01E53011F0E0E009C00E946D
:10053A00CB01E6E0EA930E94E6010E941602E1E09E
:10054A00219608951A930A93AA81BB8112960E9452
:10055A00DA04309759F1AA81BB8114960E94DA0411
:10056A008F01309761F00230E0E01E07F0F0F801E9
:10057A0031978F01AA81BB811496ED93FC93AA81CE
:10058A00BB811296ED91FD913196FE93EE933197D0
:10059A00AC81A083AA81BB810E94DA04FF232AF0DE
:1005AA00ED91FD913196FE93EE9306C0AA81BB812F
:1005BA00EFEFFFEFED93FC931981088125960895DB
:1005CA0026970E94E70410E0AC85BD85E0E0F0E0E4
:1005DA00ED93FC93EA89FB893196EA8BFB8B319781
:1005EA00E4912E2FE03011F40C941204E12FE03044
:1005FA0039F4253211F411E002C00E9487040CC1BB
:10060A00E130A9F4253219F40E94870404C112E0EA
:10061A0040E000E02D3211F401E0FEC02B3211F46B
:10062A004BE2FAC0203211F440E2F6C002C0E230D6
:10063A0039F450E013E0203311F40068EDC004C02F
:10064A00E33011F00C941104203310F02A3308F02F
:10065A0007C0AAE05A9F502DE22FE0535E0FDCC07C
:10066A00E22FE33649F40E949004E889F989A481CB
:10067A00AA930E949604CFC0E33741F40E949004E3
:10068A000E949E040E9450041E2F0AC0E03761F4A3
:10069A000E9490040E949E040E945A041E2F086021
:1006AA0002600F7730E035C0E43611F0E93611F414
:1006BA00046002C0E53731F4E4E5F0E0EE83FF833D
:1006CA0015E00DC0E83511F4086004C0E83711F0F0
:1006DA000C941004EEE5F0E0EE83FF8314E002FFD1
:1006EA0014C00E9490040E94A804AB85AA233AF47D
:1006FA00EA85FB850E94BB04EA87FB874DE240300E
:10070A0011F01F5F01C00B7F04C00E9490040E9479
:10071A00A80400FD11C0151778F407FF08C002FFEE
:10072A0004C00B7F242F115001C020E301C020E236
:10073A000E9487045150EFCF312F01FF17C030308C
:10074A00A1F003FF06C0EE81FF812591EE83FF83AE
:10075A0005C0AE81BF812D91AE83BF830E948704FD
:10076A00503009F051503150EACF4BC020E3EE81AE
:10077A00FF810E94DE04E887F987EE81FF813296C5
:10078A00EE83FF83E885F985AA85BB85AE17BF0787
:10079A0050F02F5FA885B985EA85FB85EA1BFB0B1C
:1007AA00EA87FB87EFCF2A3328F003FF02C0295FCD
:1007BA0001C0295D04FD1AC0213320F4A885B9853A
:1007CA00119709F409C0531710F000FF01C013C0B4
:1007DA0020E207FF0BC020E3006102FF07C00B7F86
:1007EA004A930E949604503009F051500E9487049F
:1007FA00503009F051503150A885B985129708F048
:10080A00B5CF00FF08C0503031F05150E0E2EA9312
:10081A000E949604F8CF10E0DDCEAC85BD850E941B
:10082A00DA040E94EE0464960895FF92F82E269741
:10083A000E94E9040E94B004309719F4EFEFFFEF29
:10084A0025C0DE0116960E94B7048D010E94B004ED
:10085A00EE83FF83E0E0E887E987DE011A960E94CB
:10086A00B7040E94DA04FA93EA931A930A93E7EA1E
:10087A00F2E0FA93EA93FE013A96FA93EA93A0DE3B
:10088A009F01AE81BF81E0E0EC93F9010E94F00480
:10089A002A96FF900895A991B991EE27FF276D91A5
:1008AA00662311F03196FBCF0895AA27BB27E99159
:1008BA00F9910590002011F01196FBCFFD010895E2
:1008CA00E5E0E3BFE0E0E2BFECBF0895FF2766275B
:1008DA0077270E94E2040895E0E0E2BFE0E0B799DA
:1008EA00E1E008950E94BF046E2B7F2B08950E94B9
:1008FA006302E0E3EA930C946802EA930E94E60139
:10090A000C9463022A93ED85FE85FA93EA93E989AA
:10091A00FA8909950895E889F9893497E88BF98B5A
:10092A000895ED85FE85FA93EA93E989FA8909958E
:10093A000895A889B98914960E94DA04EE83FF8380
:10094A00FA93EA930895A889B98914960E94DA0459
:10095A00EA87FB870895DE011C960E94B7040E946D
:10096A00DA0408950024AF0DB01D0895F195E195BC
:10097A00F0400895EE230E2EFD0121F0EE0FFF1F29
:10098A000A94E1F70895EE230E2EFD0121F0F69563
:10099A00E7950A94E1F70895EE0FFF1FEE0FFF1F88
:1009AA00EE0FFF1FEE0FFF1F0895ED91FC911197B7
:1009BA0008950590F491E02D08957A936A93FA9335
:1009CA00EA9308955A934A933A932A931A930A9365
:1009DA0008955D814C813B812A811981088108959E
:00000001FF
