:0C0000000C9438000C9400000C940000DC
:10000C000C9400000C9400000C9400000C94000064
:10001C000C9400000C9400000C9400000C94000054
:10002C000C9400000C9400000C9400000C94000044
:10003C000C9400000C9400000C9400000C94000034
:10004C000C9400000C9400001027E80364000A00D4
:10005C000100001000011000010080C002006002CD
:10006C0066000000F894EE27ECBBF1E0FBBFEBBFA1
:10007C00E5BFF8E1F1BDE1BD8DE0A2E0BB27ED935A
:10008C008A95E9F780E098E0A0E6ED930197E9F70F
:10009C00E8E6F0E085919591009761F0A591B59116
:1000AC0005901590BF01F00105900D920197E1F7B5
:1000BC00FB01F0CFEFE5EDBFE8E0EEBFC0E6D2E02C
:1000CC000C946800E0E0EBBBE7EFEABBE0E0E8BBD8
:1000DC00E7BBE5BBEFEFE4BBECEFE2BBECE9E1BB6C
:1000EC00E5E0E3BFE0E0E2BFECBFEFBDEEBDEDBD90
:1000FC00ECBDE7BDE6BDEBBDEABDE9BDE8BDE2BDCB
:10010C00E7E1E5BDE0E0E4BDE3E0E3BDE0E0E5BF51
:10011C00E4BFE9BFEBB9E8E1EAB9E6E8E0BDE0E04D
:10012C00E0BDE7E6E9B9E0E8E8B9E0E0E0BFE7B94F
:10013C00E4E8E6B90E94EC01E0E0EA93E2E3EA933A
:10014C00E7E3EA93E0E0EA935AD0E0E0EA93EA933B
:10015C00EA936FD0E0E1EA930E94A201FFCFFFCFB8
:10016C001A930A93EA81EE0FE0691E2F0E94F101A7
:10017C001A930E94D6010E94F1011F5F1A930E94EC
:10018C002502E0E0EA930E940A020E2F0E94000270
:10019C00E02F1981088169C00E94F101E981EE0FFD
:1001AC00E069EA930E94D601E8810E94DC01229664
:1001BC0008950E94F101EA81EE0FE069EA930E9432
:1001CC002502E981EA930E942502E881EA930E94C4
:1001DC002502E0E00E94DC01EA81EA93C1DFE071D4
:1001EC00D9F743C00E94F101E881EE0FE069EA9370
:1001FC000E942502EEEE0E94DC010C94D401EB81EE
:10020C00EA93E981EE0FE85FEA93C6DFEB81EA93AC
:10021C00E2EAEA93EC81EA93CCDFEB81EA93E1EA40
:10022C00EA93EB81EA93C5DFEB81EA93DBDF24965B
:10023C000895EA81E370EA83E981E03019F0EA81FC
:10024C00E061EA83E881E03019F0EA81E068EA8352
:10025C000E94F101E0EDEA930E942502E7E0EA93A7
:10026C000E942502EA810E94DC0123960895FFE09A
:10027C00FA95F1F70895AAB3AF70AABBD99AD8989A
:10028C00F6DFDA9AF4DFA9B3DA98F1DFDA9AEFDF66
:10029C00DA98A7FDF5CF0895A07FAB2BABBBDA9A0C
:1002AC000E943D01DA980E943D010895D998AAB3A5
:1002BC00A76FAABBBBB3BF70A881EEDFA881A295C4
:1002CC00EBDFD99A0C94D401DA9A0E943D01E9B380
:1002DC00DA980E943D01E07F08950E943D01F4DF11
:1002EC00AE2FF2DFD998E295EA2B08950E944101D6
:1002FC00E2E0EA930E945C010E944101ECE0EA9387
:10030C000E945C010E944101E1E0EA930E945C01C1
:10031C00E0E04E2E5E2E0895AA27BB271197F1F729
:10032C000895D998AAB3A76FAABBBBB3BF70A88115
:10033C000E945201D99A32C0DA98D8987880E88114
:10034C00E058E0936202E881E054E09363020E947B
:10035C00E1010E94E1010E94E101DEDFE0E2EA93AB
:10036C00E0DFDADFE8E20E94E701E4E00E94E70167
:10037C00E5E80E94E701AAB3AF70AABBD99A0E9424
:10038C007301E53011F0E0E009C00E944101E6E0A4
:10039C00EA930E945C010E947C01E1E021960895A1
:1003AC000E942502ECEAEA930C942502EA930E943F
:1003BC0025020C9400020E949201E0E3EA930C9453
:1003CC009701EA930E945C010C949201A898A99859
:1003DC00A09AA19815C0A198A098EE270000999B0F
:1003EC000895989B089504D0A19A02D0A09AE1E0B8
:1003FC006BE107C0A19AA09A03D0A098F9DFA1984D
:10040C0065E36A95F1F7089578E0A098F1DF989B81
:10041C00FECFEEDF889499990894A09AF1DFEE1F35
:10042C007A9599F77991772311F4A19801C0A19A43
:10043C00DFDFA098E5DFA09ADBDFA198D9CFE991A7
:10044C0078E0EE0F10F4A19801C0A19AD9DFA09822
:10045C00CFDF989BFECFCCDFA09A7A9591F7A1982D
:10046C00C7DFA098CDDFE1E09999EE27A09A089517
:00000001FF
